:100000000C94C7010C94E4010C94E4010C94E401F9
:100010000C94E4010C94E4010C94E4010C94E401CC
:100020000C94E4010C94E4010C94E4010C94E401BC
:100030000C94E4010C94E4010C94E4010C94E401AC
:100040000C94E4010C94E4010C94E4010C94E4019C
:100050000C94E4010C94E4010C94E4010C946C0203
:100060000C94E4010C94E4010C94E4010C94E4017C
:100070000C94E4010C94E4010C94E4010C94E4016C
:100080000C94E4010C94E4010C94E4010C94E4015C
:100090000C94E4010C94E4010C94E4010C94E4014C
:1000A0000C94E4010C94E4010C94E4016E616E0084
:1000B000696E6600000000000000005F000000079D
:1000C000000700147F147F14242A7F2A12231308A8
:1000D000646236495522500005030000001C22418D
:1000E000000041221C0014083E081408083E0808BD
:1000F0000050300000080808080800606000002078
:10010000100804023E5149453E00427F40004261D2
:100110005149462141454B311814127F102745455E
:1001200045393C4A49493001710905033649494975
:1001300036064949291E00363600000056360000B2
:10014000081422410014141414140041221408024B
:1001500001510906324979413E7E1111117E7F49D4
:100160004949363E414141227F4141221C7F494954
:1001700049417F090909013E4149497A7F08080838
:100180007F00417F41002040413F017F0814224110
:100190007F404040407F020C027F7F0408107F3E7A
:1001A0004141413E7F090909063E4151215E7F09D7
:1001B000192946464949493101017F01013F404023
:1001C000403F1F2040201F3F4038403F6314081429
:1001D0006307087008076151494543007F414100AA
:1001E00002040810200041417F0004020102044083
:1001F00040404040000102040020545454787F489D
:100200004444383844444420384444487F385454A3
:100210005418087E0901020C5252523E7F08040411
:100220007800447D40002040443D007F1028440079
:1002300000417F40007C041804787C08040478386E
:10024000444444387C14141408081414187C7C08A2
:100250000404084854545420043F4440203C404087
:10026000207C1C2040201C3C4030403C442810286E
:10027000440C5050503C4464544C440008364100F7
:1002800000007F00000041360800100808100878C0
:100290004641467800407A10F35A00A0724E180981
:1002A0000010A5D4E80000E87648170000E40B54DD
:1002B000020000CA9A3B000000E1F50500008096AC
:1002C0009800000040420F000000A08601000000DE
:1002D000102700000000E803000000006400000098
:1002E00000000A00000000000100000000002C7661
:1002F000D888DC674F0823DFC1DFAE59E1B1B7967C
:10030000E5E3E453C63AE651997696E8E6C28426D8
:10031000EB898C9B62ED407C6FFCEFBC9C9F40F2B4
:10032000BAA56FA5F490055A2AF75C936B6CF96730
:100330006DC11BFCE0E40D47FEF520E6B500D0EDF5
:10034000902E0300943577050080841E080000205D
:100350004E0A000000C80C333333330F986E1283FB
:100360001141EF8D2114893BE65516CFFEE6DB18CF
:10037000D1844B381BF77C1D901DA4BBE424203294
:1003800084725E228100C9F124ECA1E53D2711248D
:100390001FBECFEFDAE0DEBFCDBF11E0A0E0B1E0DD
:1003A000ECE5F8E102C005900D92A431B107D9F750
:1003B00013E0A4E1B1E001C01D92AE30B107E1F756
:1003C0000E94CC020C942C0C0C940000E1E6F0E0AE
:1003D00080E8808381E0808384B18C6084B98598D3
:1003E0003F9A479A8FE30E946A080E94750640E090
:1003F00051E065E085E00E9435080C9462060F9399
:100400001F93CF93DF93CDB7DEB7C85CD1090FB68A
:10041000F894DEBF0FBECDBF86B51F928F9380E1EB
:1004200091E09F938F938E010F5F1F4F1F930F9348
:100430000E94AB0BA8016AE084E10E9435080F908E
:100440000F900F900F900F900F90C853DF4F0FB683
:10045000F894DEBF0FBECDBFDF91CF911F910F91FA
:10046000089585B5877F85BD85B5856085BD85B5D2
:100470008D7F85BDEEE6F0E0808181608083789499
:1004800008952FEF30E792E0215030409040E1F79F
:1004900000C0000021E030E002C0220F331F8A9527
:1004A000E2F78FB190E082239323892BD1F72FEFCE
:1004B00030E782E0215030408040E1F700C000008A
:1004C00008957D9B08C085E090E00E94410295B1AF
:1004D0008CE0892785B908951F920F920FB60F926D
:1004E00011240F931F932F933F934F935F936F9319
:1004F0007F938F939F93AF93BF93EF93FF93CF938C
:10050000DF93CDB7DEB7C055D109DEBFCDBF809137
:100510001401909115010196909315018093140197
:100520000E94750680911401909115019F938F93FD
:1005300080E191E09F938F938E010F5F1F4F1F9378
:100540000F930E94AB0BA8016AE084E10E9435087A
:100550000E9462060F900F900F900F900F900F90D7
:10056000C05BDF4F0FB6F894DEBF0FBECDBFDF918B
:10057000CF91FF91EF91BF91AF919F918F917F911B
:100580006F915F914F913F912F911F910F910F901C
:100590000FBE0F901F901895109215011092140124
:1005A0000E94E6010E9431020E9475060E946102CB
:1005B0000E94FF010E9462062FEF80E792E0215027
:1005C00080409040E1F700C00000EECFA3E1B0E032
:1005D000ECEEF2E00C944E0A6C014B012A01FC0196
:1005E00017821682838181FF43C3AE014F5F5F4F45
:1005F0003A01F6019381F40193FD859193FF819176
:100600004F01882309F430C3853239F493FD859175
:1006100093FF81914F01853239F4B60190E00E9439
:10062000730B52012501E5CF10E0F12C20E02032C0
:10063000A0F48B3269F030F4803259F0833269F4DF
:1006400020612CC08D3239F0803339F4216026C00E
:100650002260246023C0286021C027FD27C030ED20
:10066000380F3A3078F426FF06C0FAE01F9F300DAD
:100670001124132F13C04AE0F49E300D1124F32EE1
:1006800020620CC08E3221F426FDEEC2206406C02A
:100690008C3611F4206802C0883641F4F40193FDD1
:1006A000859193FF81914F018111C1CF9BEB980FF1
:1006B000933018F42061805E06C09BE9980F933058
:1006C00008F071C12F7E26FF16E02F73322E85367B
:1006D00019F42064322E08C0863621F4F22FF06817
:1006E0003F2E02C01111115037FE07C01C3350F4C9
:1006F000EE24E394E10E27E00BC0183038F027E039
:1007000017E005C027E04CE3E42E02C0212FE12CC6
:10071000520144E0A40EB11CF2016081718182811A
:1007200093810E2DA3010E94850A2C01098100FFEF
:1007300002C003FF07C031FC08C032FE09C030E22E
:10074000232E07C02DE2222E04C09BE2292E01C0D9
:10075000212C802F8C7019F0211068C2A8C237FE9E
:100760000FC0E40C04FF04C08A81813309F4EA94C9
:100770001E1474F5F8E0FE1578F588E0E82E2CC01C
:1007800036FC2AC0812F90E0841595059CF02CEF53
:1007900042162FEF520674F0432D4068342E0AC0E3
:1007A000E2E0F0E0EC0FFD1FE10FF11D80818033EE
:1007B00019F411501111F4CF37FE0EC0EE24E3945A
:1007C000E10E812F90E0481659062CF4141904C04C
:1007D000EE24E39401C010E037FE06C014141504A3
:1007E00034F4C201019605C085E090E002C081E0CA
:1007F00090E021100196112331F0212F30E02F5F7E
:100800003F4F820F931F2F2D30E08217930714F470
:10081000F81A01C0F12C832D897049F4FF2039F0BA
:10082000B60180E290E00E94730BFA94F7CF222089
:1008300029F0B601822D90E00E94730B33FC09C0B1
:10084000FF2039F0B60180E390E00E94730BFA9428
:10085000F7CF37FE5AC0942D852D57FE02C090E089
:1008600080E0292E382E20E030E0A2014E195109F7
:100870005D874C87A201421953095F874E87612F1C
:1008800070E044275527461B570B598B488B5FEF69
:100890002516350649F4B6018EE290E02A8B3B8B93
:1008A0000E94730B3B892A89421453046CF04C85D7
:1008B0005D854215530544F4EE85FF85E20FF31F75
:1008C000E60DF71D818101C080E351E0251A310852
:1008D0002F5F3F4F48895989241635064CF0B601E1
:1008E00090E02A8B3B8B0E94730B2A893B89CFCFE8
:1008F0002414350439F49A81963318F4953311F49D
:1009000004FF81E3B60190E04BC08A81813309F096
:100910000F7EB60190E00E94730B111105C034FCEC
:1009200018C085E690E017C0B6018EE290E00E9404
:10093000730B82E0EE24E394E80EF301E80FF11D5F
:100940008081B60190E00E94730B11508E2D91F7BB
:10095000E6CF85E490E0B6010E94730B57FC05C01A
:100960004114510439F404FF05C0519441945108D5
:100970008DE201C08BE2B60190E00E94730B80E330
:100980009AE0491651042CF08F5F5AE0451A51083D
:10099000F7CFB60190E00E94730BB601C201C0967A
:1009A0000E94730B57C1833631F0833779F083355A
:1009B00009F058C021C05201E2E0AE0EB11CF201B4
:1009C0008081898301E010E0230114C05201F2E02C
:1009D000AF0EB11CF2014080518026FF03C0612F91
:1009E00070E002C06FEF7FEFC2012A8B0E94680B9C
:1009F0008C012A892F7715C05201F2E0AF0EB11C8D
:100A0000F2014080518026FF03C0612F70E002C0D8
:100A10006FEF7FEFC2012A8B0E945D0B8C012A8948
:100A20002068322E23FD1AC08F2D90E00817190779
:100A3000A8F4B60180E290E00E94730BFA94F4CF20
:100A4000F20137FC859137FE81912F01B60190E0CC
:100A50000E94730BF110FA94015011090115110550
:100A600079F7F8C0843611F0893659F5520127FF1D
:100A700009C0F4E0AF0EB11CF20160817181828186
:100A800093810AC0F2E0AF0EB11CF2016081718166
:100A9000882777FD8095982F2F76322E97FF09C0F3
:100AA00090958095709561957F4F8F4F9F4F2068EF
:100AB000322E2AE030E0A3010E94CE0BE82EE61889
:100AC0003FC0022F853721F40F7E2AE030E01DC0A1
:100AD000097F8F3691F018F4883559F0C5C08037FA
:100AE00019F0883711F0C0C0006104FF09C004602C
:100AF00007C024FF08C0066006C028E030E005C03B
:100B000020E130E002C020E132E0520107FF09C0DD
:100B1000F4E0AF0EB11CF20160817181828193819A
:100B200008C0F2E0AF0EB11CF2016081718180E07B
:100B300090E0A3010E94CE0BE82EE6180F77302E2E
:100B400036FE0BC0332D3E7FE11650F434FE0AC052
:100B500032FC08C0332D3E7E05C00E2D332D03C060
:100B60000E2D01C0012F34FF0CC0FE01EE0DF11D52
:100B70008081803311F4397E08C032FF05C00E5FDA
:100B800004C0832F867809F00F5F33FD13C030FF58
:100B900006C01E2D0F1518F41F0D101B0F2D0F155D
:100BA00068F4B60180E290E03B8B0E94730B0F5F0C
:100BB0003B89F5CF0F1510F4F01A01C0F12C34FF6A
:100BC00012C0B60180E390E03B8B0E94730B3B891F
:100BD00032FF17C031FD03C088E790E002C088E50E
:100BE00090E0B6010CC0832F867859F031FF02C027
:100BF0008BE201C080E237FD8DE2B60190E00E94F9
:100C0000730BE11638F4B60180E390E00E94730B99
:100C10001150F7CFEA94F301EE0DF11D8081B6017A
:100C200090E00E94730BE110F5CF14C0F4E0FF15C3
:100C300058F584E0F81A33FE1EC0211026C003FFC9
:100C40002AC00CEA10E0F32DF0713F2EF8018491D8
:100C5000811124C0FF2009F4E5CCB60180E290E0C8
:100C60000E94730BFA94F6CFF6018681978126C015
:100C70008FEF9FEF23C0B60180E290E00E94730BDC
:100C8000FA94F110F8CFD9CFF12CB601822D90E073
:100C90000E94730BD4CF00EB10E0D5CF31108052FF
:100CA000B60190E00E94730B0F5F1F4FCFCF23E080
:100CB0002F1510F483E0BECFF12CC1CF6396E2E193
:100CC0000C946A0ACF93DF9360E080E00E94A7084B
:100CD000C6E1D1E0699181E00E944C0883E0CE300A
:100CE000D807C1F7DF91CF910895E6E1F1E01192C5
:100CF00083E0EE30F807D9F70895982F843508F58A
:100D00006033F8F4862F869586958695677024E57E
:100D1000829FF0011124892F90E08E0F9F1FFC010C
:100D2000EA5EFE4F81E090E001C0880F6A95EAF725
:100D3000442319F09081892B03C0809590818923E9
:100D4000808308952F923F924F925F926F927F928D
:100D50008F929F92AF92BF92CF92DF92EF92FF92CB
:100D60000F931F93CF93DF93CDB7DEB72D970FB6B9
:100D7000F894DEBF0FBECDBFF82E262ED42EE22E65
:100D8000841320C0C62ED12C022F10E02E1468F43C
:100D90000C151D050CF4FBC041E06C2D8F2D0E943D
:100DA0007D069FEFC91AD90AF1CFC016D1060CF4FF
:100DB000EEC041E06C2D8F2D0E947D06E1E0CE1A41
:100DC000D108E4CF082F10E0242F30E03D872C8796
:100DD0006E111EC0FD1470F48C859D8580179107DF
:100DE0000CF4D5C041E0622D802F0E947D060F5F7C
:100DF0001F4FF0CFEC85FD850E171F070CF4C7C001
:100E000041E0622D802F0E947D0601501109E2CF42
:100E10006C857D85601B710B882777FD8095982FE9
:100E20000E9499092B013C012E2D30E03E832D8339
:100E3000312CB90162197309882777FD8095982FA5
:100E40000E9499094B015C01A30192010E942509AE
:100E500069837A838B839C8320E030E0A9010E9420
:100E6000490A87FF0BC0A3019201C501B401905844
:100E70000E94250969837A838B839C83C12CD12CA2
:100E8000760120E030E0A901C301B2010E94490AC5
:100E900018160CF076C02C853D85201731070CF410
:100EA00076C00B8741E0622D802F0E947D0629814C
:100EB0003A814B815C81C701B6010E94B4086B0185
:100EC0007C0120E030E040E05FE30E94490A87FFB8
:100ED0000DC020E030E0A901C301B2010E94490A1F
:100EE00018160CF04BC00F5F1F4FCBCF20E030E047
:100EF000A901C501B4010E94490A1816CCF58D81DB
:100F00009E81821593052CF341E0622D8B850E9412
:100F10007D0681E090E098878F8320E030E0A90192
:100F2000C501B4010E94490A181614F018861F82E0
:100F3000E1E0F0E0FA87E98720E030E0A901C501AF
:100F4000B4010E94200987FD02C01A8619868F818C
:100F5000988529853A85821B930B280E391E20E03F
:100F600030E040E85FE3C701B6010E94B308A7CFB5
:100F7000ED81FE812E163F063CF6ABCF01501109E4
:100F800080CF8C859D85081719070CF08ACF2D9688
:100F90000FB6F894DEBF0FBECDBFDF91CF911F918A
:100FA0000F91FF90EF90DF90CF90BF90AF909F9008
:100FB0008F907F906F905F904F903F902F9008950B
:100FC0007F928F929F92AF92BF92CF92DF92EF92D9
:100FD000FF920F931F93CF93DF93982E862E25E0D9
:100FE000429F7001112400E010E030EAE31AF1089A
:100FF000AA24A394B12CC701800F911F9C012C54EB
:101000003F4F6901C0E0D0E0792C700EC830D105A7
:10101000C9F0F601449150E095010C2E02C0220F58
:10102000331F0A94E2F7422353230C2E02C0559536
:1010300047950A94E2F76C2F680D872D0E947D0674
:101040002196E4CF0F5F1F4F05301105A1F6DF9108
:10105000CF911F910F91FF90EF90DF90CF90BF90B5
:10106000AF909F908F907F9008950F931F93CF9391
:10107000DF93D62F8A01C82FF80141918F014423B5
:1010800031F06D2F8C2F0E94E007CB5FF5CFDF9101
:10109000CF911F910F91089525B130E2839FC00138
:1010A00011242F7D822B85B95F9887E090E070E056
:1010B0008F989B01082E02C0359527950A94E2F778
:1010C00020FF02C02E9A01C02E988F9A019780F7B8
:1010D0005F9A0895CF93C82F579A249A259A269AF3
:1010E000879A2C985F9A2C9A61E280E00E944C08C3
:1010F0006C2F606880E00E944C0864E080E00E94F1
:101100004C0863E180E00E944C086CE080E00E94A3
:101110004C0860E280E00E944C086CE080E00E9495
:101120004C0860E480E00E944C0860E880E0CF91C9
:101130000C944C08CF93DF93C8EFD1E060E081E0DE
:101140000E944C082197D1F7DF91CF910895CF935A
:10115000C82F606480E00E944C086C2F606880E0BB
:10116000CF910C944C085058BB27AA270E94CB085B
:101170000C940F0A0E94010A38F00E94080A20F01D
:1011800039F49F3F19F426F40C94FE090EF4E0950F
:10119000E7FB0C94F809E92F0E94200A58F3BA17CC
:1011A000620773078407950720F079F4A6F50C947D
:1011B000420A0EF4E0950B2EBA2FA02D0B01B901B7
:1011C00090010C01CA01A0011124FF27591B99F0BD
:1011D000593F50F4503E68F11A16F040A22F232FC9
:1011E000342F4427585FF3CF469537952795A79519
:1011F000F0405395C9F77EF41F16BA0B620B730BC0
:10120000840BBAF09150A1F0FF0FBB1F661F771F30
:10121000881FC2F70EC0BA0F621F731F841F48F4E5
:10122000879577956795B795F7959E3F08F0B0CF6E
:101230009395880F08F09927EE0F97958795089555
:101240000E94D40908F481E008950E9439090C94A1
:101250000F0A0E94080A58F00E94010A40F029F47F
:101260005F3F29F00C94F80951110C94430A0C9437
:10127000FE090E94200A68F39923B1F3552391F3E4
:10128000951B550BBB27AA2762177307840738F0F5
:101290009F5F5F4F220F331F441FAA1FA9F335D052
:1012A0000E2E3AF0E0E832D091505040E695001C06
:1012B000CAF72BD0FE2F29D0660F771F881FBB1FC0
:1012C000261737074807AB07B0E809F0BB0B802D9E
:1012D000BF01FF2793585F4F3AF09E3F510578F0CA
:1012E0000C94F8090C94430A5F3FE4F3983ED4F35E
:1012F000869577956795B795F7959F5FC9F7880F9E
:10130000911D9695879597F90895E1E0660F771FEF
:10131000881FBB1F621773078407BA0720F0621B80
:10132000730B840BBA0BEE1F88F7E0950895E894D1
:1013300009C097FB3EF490958095709561957F4F1D
:101340008F4F9F4F9923A9F0F92F96E9BB279395CB
:10135000F695879577956795B795F111F8CFFAF4DB
:10136000BB0F11F460FF1BC06F5F7F4F8F4F9F4F0C
:1013700016C0882311F096E911C0772321F09EE86A
:10138000872F762F05C0662371F096E8862F70E0D0
:1013900060E02AF09A95660F771F881FDAF7880FAA
:1013A0009695879597F90895990F0008550FAA0B00
:1013B000E0E8FEEF16161706E807F907C0F0121668
:1013C0001306E407F50798F0621B730B840B950B6B
:1013D00039F40A2661F0232B242B252B21F40895C0
:1013E0000A2609F4A140A6958FEF811D811D08955D
:1013F00097F99F6780E870E060E008959FEF80ECC8
:10140000089500240A94161617061806090608956A
:1014100000240A9412161306140605060895092ED0
:101420000394000C11F4882352F0BB0F40F4BF2B3F
:1014300011F460FF04C06F5F7F4F8F4F9F4F08957F
:1014400057FD9058440F551F59F05F3F71F0479575
:10145000880F97FB991F61F09F3F79F0879508955A
:10146000121613061406551FF2CF4695F1DF08C079
:10147000161617061806991FF1CF86957105610596
:1014800008940895E894BB2766277727CB0197F93E
:1014900008950E94D40908F48FEF08952F923F9287
:1014A0004F925F926F927F928F929F92AF92BF9274
:1014B000CF92DF92EF92FF920F931F93CF93DF9320
:1014C000CDB7DEB7CA1BDB0B0FB6F894DEBF0FBE7D
:1014D000CDBF09942A88398848885F846E847D84CA
:1014E0008C849B84AA84B984C884DF80EE80FD80CC
:1014F0000C811B81AA81B981CE0FD11D0FB6F89442
:10150000DEBF0FBECDBFED010895283008F027E003
:101510003327DA01990F311D87FD9160009661052F
:10152000710539F432602E5F3D9330E32A95E1F77F
:1015300008959F3F30F080387105610509F03C5FE8
:101540003C5F3D93913008F08068911DDF93CF930D
:101550001F930F93FF92EF92192F987F9695E92F83
:1015600096959695E90FFF27E251FD4F992733276E
:10157000EE24FF24A701E70105900894079428F4BE
:10158000360FE71EF81E491F511D660F771F881F73
:10159000991F0694A1F70590079428F4E70EF81E0A
:1015A000491F561FC11D770F881F991F661F06947C
:1015B000A1F70590079428F4F80E491F561FC71F7E
:1015C000D11D880F991F661F771F0694A1F70590FC
:1015D000079420F4490F561FC71FD81F990F661F85
:1015E000771F881F0694A9F784911095177041F012
:1015F000D695C79557954795F794E7941A95C1F7EF
:10160000E4E9F2E068941590159135916591959112
:1016100005907FE27395E118F10A430B560BC90B55
:10162000D009C0F7E10CF11E431F561FC91FD01D82
:101630007EF4703311F48A95E6CFE894015030F0CF
:10164000080F0AF40027021708F4202F2395022F11
:101650007A3328F079E37D932A95E9F710C07D93DA
:101660002A9589F606949795679537951795179457
:10167000E118F10A430B560BC90BD00998F02395DA
:101680007E9173957A3308F070E37C932013B8F75A
:101690007E9170617D9330F0839571E37D9370E36B
:1016A0002A95E1F71124EF90FF900F911F91CF91B0
:1016B000DF91992787FD90950895FC010590615071
:1016C00070400110D8F7809590958E0F9F1F089558
:1016D000FC016150704001900110D8F78095909501
:1016E0008E0F9F1F08950F931F93CF93DF93FB01DE
:1016F000238121FD03C08FEF9FEF28C022FF16C07A
:1017000046815781248135814217530744F4A081D3
:10171000B1819D012F5F3F4F318320838C932681C0
:1017200037812F5F3F4F3783268310C0EB01092F8E
:10173000182F0084F185E02D0995892BE1F68E8123
:101740009F8101969F838E83812F902FDF91CF9170
:101750001F910F910895AEE0B0E0E1EBFBE00C9437
:101760005C0A0D891E8986E08C831A8309838FEFBA
:101770009FE79E838D83AE01475E5F4F6F89788DB3
:10178000CE0101960E94E6022F813885F801E20F12
:10179000F31F10822E96E4E00C94780AFA01AA272F
:1017A000283051F1203181F1E8946F936E7F6E5FA4
:1017B0007F4F8F4F9F4FAF4FB1E03ED0B4E03CD052
:1017C000670F781F891F9A1FA11D680F791F8A1F35
:1017D000911DA11D6A0F711D811D911DA11D20D09C
:1017E00009F468943F912AE0269F11243019305D56
:1017F0003193DEF6CF010895462F4770405D419347
:10180000B3E00FD0C9F7F6CF462F4F70405D4A3393
:1018100018F0495D31FD4052419302D0A9F7EACF5B
:10182000B4E0A6959795879577956795BA95C9F78A
:1018300000976105710508959B01AC010A2E06947D
:101840005795479537952795BA95C9F7620F731F36
:0C185000841F951FA01D0895F894FFCF81
:10185C00506C732067697665206D652061203700B8
:04186C0025640000EF
:00000001FF
