:100000000C94B7020C94D4020C94D4020C94D40235
:100010000C94D4020C94D4020C94D4020C94D40208
:100020000C94D4020C94D4020C94D4020C94D402F8
:100030000C94D4020C94D4020C94D4020C94D402E8
:100040000C94D4020C94D4020C94D4020C94D402D8
:100050000C94D4020C94D4020C94D4020C94D402C8
:100060000C94D4020C94D4020C94D4020C94D402B8
:100070000C94D4020C94D4020C94D4020C94D402A8
:100080000C94D4020C94D4020C94D4020C94D40298
:100090000C94D4020C94D4020C94D4020C94D40288
:1000A0000C94D4020C94D4020C94D40200000000EE
:1000B0000000005F00000007000700147F147F1499
:1000C000242A7F2A122313086462364955225000DD
:1000D00005030000001C2241000041221C001408FE
:1000E0003E081408083E08080050300000080808C0
:1000F0000808006060000020100804023E514945D5
:100100003E00427F400042615149462141454B310A
:100110001814127F1027454545393C4A494930019A
:10012000710905033649494936064949291E0036F1
:100130003600000056360000081422410014141442
:100140001414004122140802015109063249794170
:100150003E7E1111117E7F494949363E414141227F
:100160007F4141221C7F494949417F090909013EDC
:100170004149497A7F0808087F00417F41002040BB
:10018000413F017F081422417F404040407F020CE4
:10019000027F7F0408107F3E4141413E7F090909EB
:1001A000063E4151215E7F09192946464949493198
:1001B00001017F01013F4040403F1F2040201F3F81
:1001C0004038403F63140814630708700807615102
:1001D000494543007F41410002040810200041418D
:1001E0007F0004020102044040404040000102043C
:1001F0000020545454787F484444383844444420C0
:10020000384444487F3854545418087E0901020C7D
:100210005252523E7F0804047800447D4000204042
:10022000443D007F1028440000417F40007C0418BA
:1002300004787C0804047838444444387C1414144A
:1002400008081414187C7C080404084854545420EA
:10025000043F4440203C4040207C1C2040201C3C6B
:100260004030403C44281028440C5050503C4464DA
:10027000544C44000836410000007F000000413625
:100280000800100808100878464146786E616E0034
:10029000696E6600000000000000005F00000007BB
:1002A000000700147F147F14242A7F2A12231308C6
:1002B000646236495522500005030000001C2241AB
:1002C000000041221C0014083E081408083E0808DB
:1002D0000050300000080808080800606000002096
:1002E000100804023E5149453E00427F40004261F1
:1002F0005149462141454B311814127F102745457D
:1003000045393C4A49493001710905033649494993
:1003100036064949291E00363600000056360000D0
:100320000814224100141414141400412214080269
:1003300001510906324979413E7E1111117E7F49F2
:100340004949363E414141227F4141221C7F494972
:1003500049417F090909013E4149497A7F08080856
:100360007F00417F41002040413F017F081422412E
:100370007F404040407F020C027F7F0408107F3E98
:100380004141413E7F090909063E4151215E7F09F5
:10039000192946464949493101017F01013F404041
:1003A000403F1F2040201F3F4038403F6314081447
:1003B0006307087008076151494543007F414100C8
:1003C00002040810200041417F00040201020440A1
:1003D00040404040000102040020545454787F48BB
:1003E0004444383844444420384444487F385454C2
:1003F0005418087E0901020C5252523E7F08040430
:100400007800447D40002040443D007F1028440097
:1004100000417F40007C041804787C08040478388C
:10042000444444387C14141408081414187C7C08C0
:100430000404084854545420043F4440203C4040A5
:10044000207C1C2040201C3C4030403C442810288C
:10045000440C5050503C4464544C44000836410015
:1004600000007F00000041360800100808100878DE
:100470004641467800407A10F35A00A0724E18099F
:100480000010A5D4E80000E87648170000E40B54FB
:10049000020000CA9A3B000000E1F50500008096CA
:1004A0009800000040420F000000A08601000000FC
:1004B000102700000000E8030000000064000000B6
:1004C00000000A00000000000100000000002C767F
:1004D000D888DC674F0823DFC1DFAE59E1B1B7969A
:1004E000E5E3E453C63AE651997696E8E6C28426F7
:1004F000EB898C9B62ED407C6FFCEFBC9C9F40F2D3
:10050000BAA56FA5F490055A2AF75C936B6CF9674E
:100510006DC11BFCE0E40D47FEF520E6B500D0ED13
:10052000902E0300943577050080841E080000207B
:100530004E0A000000C80C333333330F986E128319
:100540001141EF8D2114893BE65516CFFEE6DB18ED
:10055000D1844B381BF77C1D901DA4BBE4242032B2
:1005600084725E228100C9F124ECA1E53D271124AB
:100570001FBECFEFDAE0DEBFCDBF11E0A0E0B1E0FB
:10058000ECE6F3E202C005900D92A431B107D9F771
:1005900013E0A4E1B1E001C01D92A031B107E1F781
:1005A0000E949A030C94B4110C940000EF92FF92F5
:1005B0000F931F93CF93DF9395E0899FE001112460
:1005C00026E030E006E61FEF790181E0E81AF10845
:1005D00069F0F801E21BF30BEC0FFD1FE455FF4F30
:1005E000649181E00E94ED099701EECF60E081E027
:1005F000DF91CF911F910F91FF90EF900C94ED0937
:10060000EF92FF920F931F93CF93DF9300D0CDB75C
:10061000DEB7182F66956695669570E080E090E0ED
:1006200049835A830E94480C0E94830C0E94170C35
:10063000812F0E94480A4981E42E5A81F52E8701B4
:100640000A5F1F4FF70181917F010E94D602E016D9
:10065000F106C1F70F900F90DF91CF911F910F918D
:10066000FF90EF9008950895FF920F931F93CF93FB
:10067000DF93F82ED62F682F70E080E090E00E9484
:10068000480C20E030E040E05EE30E94550D0E94FF
:10069000820B0E94170CC62FD69F8001112462E0A6
:1006A00070E0C8010E94210EDC01080F191F9C0197
:1006B0004FEF522F581B5C1738F4F90141939F01FB
:1006C000F80142938F01F5CF4F2D477028E030E0BD
:1006D000241B31092770332741E001C0440F2A95BC
:1006E000EAF72C2F30E0F9013197E80FF91F50E0BD
:1006F0005D1761F06C9160686C936081642B60831E
:100700005F5FA20FB31FE20FF31FF2CFDF91CF9114
:100710001F910F91FF90089590E0809725E0289F0A
:10072000F001299FF00D1124E60FF11DE455FF4F54
:1007300084910895CF93DF93CDB7DEB765970FB659
:10074000F894DEBF0FBECDBF80E88093610081E0EA
:100750008093610080E090E00E94BB0F8CE784B939
:100760008FE980BB8CEF8AB98FE30E940B0AA12C22
:10077000B12CC12CE12C00E010E09801B901A801D6
:10078000CE0101960E94540A312C612C7724739477
:1007900000E310E02AE1A22EB12C3EE1E32EF12C81
:1007A0004CE0842E912C53E0452E512C84E1C82E30
:1007B00081E0D82E0E94B60FB3010E94C20DF6014F
:1007C00081936F01FCE0CF16F3E0DF0699F74AE072
:1007D00051E060E28AE40E94D60940E268E28AE4DD
:1007E0000E94810940E3430D68E28FE40E94810981
:1007F0000E94030821E0321699F0321620F032E010
:10080000331621F15DC060E080E00E94480A0E943A
:10081000B60FB5010E94C20D8F5B0E94D60250C078
:100820000E94B60F6C010E94B60FFC01C601B80110
:100830000E94C20D282FCF016AE270E00E94C20D13
:100840004DE051E0622F0E9400033AC08C899D89DF
:10085000009711F00E94D20E0E94B60FB7010E94BD
:10086000C20D8B5F898B0E94B60FB7010E94C20D2B
:100870008B5F8A8B0E94B60FB8010E94C20DBC012B
:10088000882777FD8095982F0E94480C69837A838A
:100890008B839C830E94B60FB4010E94C20DBC01E1
:1008A000882777FD8095982F0E94480C6D837E8362
:1008B0008F8398876A8989890E9434039D8B8C8BEA
:1008C0008FB1829586958370D9F39FE7E8E3F1E0D5
:1008D0009150E040F040E1F700C000009FB19295D8
:1008E00096959370D9F72FE738E391E02150304087
:1008F0009040E1F700C00000813009F457CF832D0C
:1009000090E00196B2010E94C20D382E4FCFA3E1B4
:10091000B0E0EDE8F4E00C94D60D6C014B012A0137
:10092000FC0117821682838181FF43C3AE014F5FB2
:100930005F4F3A01F6019381F40193FD859193FF96
:1009400081914F01882309F430C3853239F493FD36
:10095000859193FF81914F01853239F4B60190E082
:100960000E94BB1052012501E5CF10E0F12C20E0E0
:100970002032A0F48B3269F030F4803259F08332A7
:1009800069F420612CC08D3239F0803339F4216054
:1009900026C02260246023C0286021C027FD27C014
:1009A00030ED380F3A3078F426FF06C0FAE01F9F8A
:1009B000300D1124132F13C04AE0F49E300D112482
:1009C000F32E20620CC08E3221F426FDEEC220648C
:1009D00006C08C3611F4206802C0883641F4F40158
:1009E00093FD859193FF81914F018111C1CF9BEBC5
:1009F000980F933018F42061805E06C09BE9980F31
:100A0000933008F071C12F7E26FF16E02F73322E2F
:100A1000853619F42064322E08C0863621F4F22F70
:100A2000F0683F2E02C01111115037FE07C01C3371
:100A300050F4EE24E394E10E27E00BC0183038F0B8
:100A400027E017E005C027E04CE3E42E02C0212F89
:100A5000E12C520144E0A40EB11CF20160817181CD
:100A6000828193810E2DA3010E94C60F2C01098162
:100A700000FF02C003FF07C031FC08C032FE09C0FE
:100A800030E2232E07C02DE2222E04C09BE2292E45
:100A900001C0212C802F8C7019F0211068C2A8C2CF
:100AA00037FE0FC0E40C04FF04C08A81813309F4CF
:100AB000EA941E1474F5F8E0FE1578F588E0E82E47
:100AC0002CC036FC2AC0812F90E0841595059CF03F
:100AD0002CEF42162FEF520674F0432D4068342E4F
:100AE0000AC0E2E0F0E0EC0FFD1FE10FF11D808194
:100AF000803319F411501111F4CF37FE0EC0EE24DB
:100B0000E394E10E812F90E0481659062CF4141955
:100B100004C0EE24E39401C010E037FE06C01414B4
:100B2000150434F4C201019605C085E090E002C0CE
:100B300081E090E021100196112331F0212F30E067
:100B40002F5F3F4F820F931F2F2D30E082179307A7
:100B500014F4F81A01C0F12C832D897049F4FF2098
:100B600039F0B60180E290E00E94BB10FA94F7CF12
:100B7000222029F0B601822D90E00E94BB1033FCA8
:100B800009C0FF2039F0B60180E390E00E94BB105D
:100B9000FA94F7CF37FE5AC0942D852D57FE02C028
:100BA00090E080E0292E382E20E030E0A2014E199E
:100BB00051095D874C87A201421953095F874E870F
:100BC000612F70E044275527461B570B598B488BE4
:100BD0005FEF2516350649F4B6018EE290E02A8BC8
:100BE0003B8B0E94BB103B892A89421453046CF052
:100BF0004C855D854215530544F4EE85FF85E20F73
:100C0000F31FE60DF71D818101C080E351E0251A35
:100C100031082F5F3F4F48895989241635064CF01B
:100C2000B60190E02A8B3B8B0E94BB102A893B893E
:100C3000CFCF2414350439F49A81963318F49533C0
:100C400011F404FF81E3B60190E04BC08A81813347
:100C500009F00F7EB60190E00E94BB10111105C093
:100C600034FC18C085E690E017C0B6018EE290E033
:100C70000E94BB1082E0EE24E394E80EF301E80F3B
:100C8000F11D8081B60190E00E94BB1011508E2DA5
:100C900091F7E6CF85E490E0B6010E94BB1057FCC7
:100CA00005C04114510439F404FF05C05194419426
:100CB00051088DE201C08BE2B60190E00E94BB10AA
:100CC00080E39AE0491651042CF08F5F5AE0451AF0
:100CD0005108F7CFB60190E00E94BB10B601C201E7
:100CE000C0960E94BB1057C1833631F0833779F02C
:100CF000833509F058C021C05201E2E0AE0EB11CAC
:100D0000F2018081898301E010E0230114C05201C7
:100D1000F2E0AF0EB11CF2014080518026FF03C00B
:100D2000612F70E002C06FEF7FEFC2012A8B0E943B
:100D3000B0108C012A892F7715C05201F2E0AF0E56
:100D4000B11CF2014080518026FF03C0612F70E08A
:100D500002C06FEF7FEFC2012A8B0E949E108C01B0
:100D60002A892068322E23FD1AC08F2D90E00817A3
:100D70001907A8F4B60180E290E00E94BB10FA9433
:100D8000F4CFF20137FC859137FE81912F01B60136
:100D900090E00E94BB10F110FA9401501109011566
:100DA000110579F7F8C0843611F0893659F55201EA
:100DB00027FF09C0F4E0AF0EB11CF2016081718120
:100DC000828193810AC0F2E0AF0EB11CF201608112
:100DD0007181882777FD8095982F2F76322E97FF87
:100DE00009C090958095709561957F4F8F4F9F4F6B
:100DF0002068322E2AE030E0A3010E94F310E82E92
:100E0000E6183FC0022F853721F40F7E2AE030E03C
:100E10001DC0097F8F3691F018F4883559F0C5C090
:100E2000803719F0883711F0C0C0006104FF09C095
:100E3000046007C024FF08C0066006C028E030E058
:100E400005C020E130E002C020E132E0520107FF9E
:100E500009C0F4E0AF0EB11CF201608171818281A2
:100E6000938108C0F2E0AF0EB11CF2016081718184
:100E700080E090E0A3010E94F310E82EE6180F77BF
:100E8000302E36FE0BC0332D3E7FE11650F434FE7B
:100E90000AC032FC08C0332D3E7E05C00E2D332D16
:100EA00003C00E2D01C0012F34FF0CC0FE01EE0D5A
:100EB000F11D8081803311F4397E08C032FF05C0F6
:100EC0000E5F04C0832F867809F00F5F33FD13C0D7
:100ED00030FF06C01E2D0F1518F41F0D101B0F2D0F
:100EE0000F1568F4B60180E290E03B8B0E94BB10C6
:100EF0000F5F3B89F5CF0F1510F4F01A01C0F12CEC
:100F000034FF12C0B60180E390E03B8B0E94BB101F
:100F10003B8932FF17C031FD03C088E790E002C073
:100F200088E590E0B6010CC0832F867859F031FF38
:100F300002C08BE201C080E237FD8DE2B60190E095
:100F40000E94BB10E11638F4B60180E390E00E94E5
:100F5000BB101150F7CFEA94F301EE0DF11D808123
:100F6000B60190E00E94BB10E110F5CF14C0F4E090
:100F7000FF1558F584E0F81A33FE1EC0211026C074
:100F800003FF2AC00CE812E0F32DF0713F2EF801A8
:100F90008491811124C0FF2009F4E5CCB60180E2E0
:100FA00090E00E94BB10FA94F6CFF60186819781FB
:100FB00026C08FEF9FEF23C0B60180E290E00E9431
:100FC000BB10FA94F110F8CFD9CFF12CB601822DD5
:100FD00090E00E94BB10D4CF00E912E0D5CF3110D1
:100FE0008052B60190E00E94BB100F5F1F4FCFCF21
:100FF00023E02F1510F483E0BECFF12CC1CF639610
:10100000E2E10C94F20DCF93DF9360E080E00E9468
:10101000480AC4E1D1E0699181E00E94ED0983E0D2
:10102000CC30D807C1F7DF91CF910895E4E1F1E02A
:10103000119283E0EC30F807D9F70895982F8435A2
:1010400008F56033F8F4862F869586958695677047
:1010500024E5829FF0011124892F90E08E0F9F1FBD
:10106000FC01EC5EFE4F81E090E001C0880F6A95C4
:10107000EAF7442319F09081892B03C08095908171
:101080008923808308952F923F924F925F926F92AF
:101090007F928F929F92AF92BF92CF92DF92EF9208
:1010A000FF920F931F93CF93DF93CDB7DEB72D97AA
:1010B0000FB6F894DEBF0FBECDBFF82E262ED42E6D
:1010C000E22E841320C0C62ED12C022F10E02E1445
:1010D00068F40C151D050CF4FBC041E06C2D8F2D40
:1010E0000E941E089FEFC91AD90AF1CFC016D10677
:1010F0000CF4EEC041E06C2D8F2D0E941E08E1E043
:10110000CE1AD108E4CF082F10E0242F30E03D871D
:101110002C876E111EC0FD1470F48C859D85801780
:1011200091070CF4D5C041E0622D802F0E941E086B
:101130000F5F1F4FF0CFEC85FD850E171F070CF4D6
:10114000C7C041E0622D802F0E941E080150110986
:10115000E2CF6C857D85601B710B882777FD8095BC
:10116000982F0E94480C2B013C012E2D30E03E832D
:101170002D83312CB90162197309882777FD809579
:10118000982F0E94480C4B015C01A30192010E9420
:101190009E0B69837A838B839C8320E030E0A901D6
:1011A0000E94500D87FF0BC0A3019201C501B4013D
:1011B00090580E949E0B69837A838B839C83C12CF9
:1011C000D12C760120E030E0A901C301B2010E94D8
:1011D000500D18160CF076C02C853D852017310770
:1011E0000CF476C00B8741E0622D802F0E941E0810
:1011F00029813A814B815C81C701B6010E94160B9F
:101200006B017C0120E030E040E05FE30E94500D84
:1012100087FF0DC020E030E0A901C301B2010E94A8
:10122000500D18160CF04BC00F5F1F4FCBCF20E0B6
:1012300030E0A901C501B4010E94500D1816CCF58B
:101240008D819E81821593052CF341E0622D8B8563
:101250000E941E0881E090E098878F8320E030E0B4
:10126000A901C501B4010E94500D181614F018868A
:101270001F82E1E0F0E0FA87E98720E030E0A90191
:10128000C501B4010E94990B87FD02C01A86198618
:101290008F81988529853A85821B930B280E391EEC
:1012A00020E030E040E85FE3C701B6010E94150B83
:1012B000A7CFED81FE812E163F063CF6ABCF015045
:1012C000110980CF8C859D85081719070CF08ACFEE
:1012D0002D960FB6F894DEBF0FBECDBFDF91CF9134
:1012E0001F910F91FF90EF90DF90CF90BF90AF9044
:1012F0009F908F907F906F905F904F903F902F9036
:1013000008957F928F929F92AF92BF92CF92DF9279
:10131000EF92FF920F931F93CF93DF93982E862E19
:1013200025E0429F7001112400E010E030EAE31A4A
:10133000F108AA24A394B12CC701800F911F9C012E
:101340002C563D4F6901C0E0D0E0792C700EC830BA
:10135000D105C9F0F601449150E095010C2E02C070
:10136000220F331F0A94E2F7422353230C2E02C0AC
:10137000559547950A94E2F76C2F680D872D0E94CA
:101380001E082196E4CF0F5F1F4F05301105A1F60F
:10139000DF91CF911F910F91FF90EF90DF90CF9051
:1013A000BF90AF909F908F907F9008950F931F9361
:1013B000CF93DF93D62F8A01C82FF80141918F0177
:1013C000442331F06D2F8C2F0E948109CB5FF5CF24
:1013D000DF91CF911F910F91089525B130E2839F46
:1013E000C00111242F7D822B85B95F9887E090E0A2
:1013F00070E08F989B01082E02C0359527950A94BE
:10140000E2F720FF02C02E9A01C02E988F9A019712
:1014100080F75F9A0895CF93C82F579A249A259AF8
:10142000269A879A2C985F9A2C9A61E280E00E9413
:10143000ED096C2F606880E00E94ED0964E080E0B7
:101440000E94ED0963E180E00E94ED096CE080E01C
:101450000E94ED0960E280E00E94ED096CE080E00E
:101460000E94ED0960E480E00E94ED0960E880E000
:10147000CF910C94ED09CF93DF93C8EFD1E060E0FA
:1014800081E00E94ED092197D1F7DF91CF91089576
:10149000CF93C82F606480E00E94ED096C2F6068D4
:1014A00080E0CF910C94ED09AF92BF92CF92EF9272
:1014B0000F931F93FC0140835183628373830483E2
:1014C000158326833783E08AC18AB48AA38A81E0A0
:1014D000828B1086118612861386148615861686D0
:1014E00017861F910F91EF90CF90BF90AF90089506
:1014F0006F927F929F92AF92BF92CF92DF92EF92C4
:10150000FF920F931F93CF93DF9300D000D0CDB7FE
:10151000DEB7FC012289222309F475C03C016089F1
:1015200070E080E090E00E94480C20E030E040E075
:101530005EE30E94550D0E94820B0E94170C962EAE
:10154000A12CF3018189A81608F05DC0A99C600157
:101550001124B12CEE24D7FCE094FE2CF3018089F9
:10156000B81608F04EC00B2D10E0B801882777FDA3
:101570008095982F0E94480C20E030E040E05EE328
:101580000E94550D0E94830C9B01AC01C701B6015E
:1015900029833A834C835B830E94480C29813A81DA
:1015A0004C815B810E94160B0E94100CF301238971
:1015B0003489F901E60FF71F408150E0009510953E
:1015C0000770112702C0559547950A95E2F74170BB
:1015D000F30164817581868197814C830E94170C89
:1015E0001A2D160FF30160817181828193810E940F
:1015F000170C862F4C81612F8B0D0E941E08B3940F
:10160000ADCFA3949ECF0F900F900F900F90DF91CE
:10161000CF911F910F91FF90EF90DF90CF90BF90EF
:10162000AF909F907F906F9008955058BB27AA2746
:101630000E942D0B0C94FE0C0E94F00C38F00E94BE
:10164000F70C20F039F49F3F19F426F40C94ED0CBC
:101650000EF4E095E7FB0C94BE0CE92F0E940F0DF1
:1016600058F3BA17620773078407950720F079F4D7
:10167000A6F50C94490D0EF4E0950B2EBA2FA02D73
:101680000B01B90190010C01CA01A0011124FF272F
:10169000591B99F0593F50F4503E68F11A16F0402A
:1016A000A22F232F342F4427585FF3CF4695379529
:1016B0002795A795F0405395C9F77EF41F16BA0BEE
:1016C000620B730B840BBAF09150A1F0FF0FBB1F9C
:1016D000661F771F881FC2F70EC0BA0F621F731FE5
:1016E000841F48F4879577956795B795F7959E3F42
:1016F00008F0B0CF9395880F08F09927EE0F9795D3
:10170000879508950E94310D90F09F3748F491110C
:1017100016F40C944A0D60E070E080E89FE30895B1
:1017200026F01B16611D711D811D0C94C40C0C94B8
:10173000DF0C0E949A0C08F481E008950E94B20B1D
:101740000C94FE0C0E94F70C58F00E94F00C40F034
:1017500029F45F3F29F00C94BE0C51110C944A0DF2
:101760000C94ED0C0E940F0D68F39923B1F35523EF
:1017700091F3951B550BBB27AA27621773078407A4
:1017800038F09F5F5F4F220F331F441FAA1FA9F33A
:1017900035D00E2E3AF0E0E832D091505040E69528
:1017A000001CCAF72BD0FE2F29D0660F771F881F89
:1017B000BB1F261737074807AB07B0E809F0BB0B7C
:1017C000802DBF01FF2793585F4F3AF09E3F510590
:1017D00078F00C94BE0C0C944A0D5F3FE4F3983EF5
:1017E000D4F3869577956795B795F7959F5FC9F779
:1017F000880F911D9695879597F90895E1E0660FFA
:10180000771F881FBB1F621773078407BA0720F072
:10181000621B730B840BBA0BEE1F88F7E0950895DB
:101820000E94170C6894B1110C944A0D08950E94FF
:10183000170D88F09F5798F0B92F9927B751B0F03E
:10184000E1F0660F771F881F991F1AF0BA95C9F744
:1018500014C0B13091F00E94490DB1E008950C948C
:10186000490D672F782F8827B85F39F0B93FCCF33F
:10187000869577956795B395D9F73EF490958095C1
:10188000709561957F4F8F4F9F4F0895E89409C0E1
:1018900097FB3EF490958095709561957F4F8F4FA3
:1018A0009F4F9923A9F0F92F96E9BB279395F695B9
:1018B000879577956795B795F111F8CFFAF4BB0F37
:1018C00011F460FF1BC06F5F7F4F8F4F9F4F16C09B
:1018D000882311F096E911C0772321F09EE8872F25
:1018E000762F05C0662371F096E8862F70E060E0E1
:1018F0002AF09A95660F771F881FDAF7880F96955A
:10190000879597F908950E94310D90F09F3748F41C
:10191000911116F00C944A0D60E070E080E89FEBA6
:10192000089526F41B16611D711D811D0C94C40CB5
:101930000C94DF0C990F0008550FAA0BE0E8FEEF9E
:1019400016161706E807F907C0F012161306E40783
:10195000F50798F0621B730B840B950B39F40A267C
:1019600061F0232B242B252B21F408950A2609F45A
:10197000A140A6958FEF811D811D089597F99F675E
:1019800080E870E060E00895882371F4772321F007
:101990009850872B762F07C0662311F499270DC026
:1019A0009051862B70E060E02AF09A95660F771FC1
:1019B000881FDAF7880F9695879597F908959F3FC6
:1019C00031F0915020F4879577956795B795880FFA
:1019D000911D9695879597F908959FEF80EC08954E
:1019E00000240A94161617061806090608950024FE
:1019F0000A9412161306140605060895092E039478
:101A0000000C11F4882352F0BB0F40F4BF2B11F4EB
:101A100060FF04C06F5F7F4F8F4F9F4F089557FD4A
:101A20009058440F551F59F05F3F71F04795880F4C
:101A300097FB991F61F09F3F79F0879508951216E3
:101A400013061406551FF2CF4695F1DF08C016168F
:101A500017061806991FF1CF869571056105089440
:101A600008950E94170DA0F0BEE7B91788F4BB27B0
:101A70009F3860F41616B11D672F782F8827985F5E
:101A8000F7CF869577956795B11D93959639C8F3ED
:101A90000895E894BB2766277727CB0197F9089527
:101AA0000E949A0C08F48FEF08950E94680D0C9420
:101AB000FE0C0E94F00C38F00E94F70C20F09523E9
:101AC00011F00C94BE0C0C94ED0C11240C944A0DE6
:101AD0000E940F0D70F3959FC1F3950F50E0551FB5
:101AE000629FF001729FBB27F00DB11D639FAA2773
:101AF000F00DB11DAA1F649F6627B00DA11D661FC2
:101B0000829F2227B00DA11D621F739FB00DA11DE2
:101B1000621F839FA00D611D221F749F3327A00D9C
:101B2000611D231F849F600D211D822F762F6A2F38
:101B300011249F5750409AF0F1F088234AF0EE0F9D
:101B4000FF1FBB1F661F771F881F91505040A9F7CA
:101B50009E3F510580F00C94BE0C0C944A0D5F3FE3
:101B6000E4F3983ED4F3869577956795B795F79506
:101B7000E7959F5FC1F7FE2B880F911D969587957E
:101B800097F9089597FB072E16F4009407D077FD78
:101B900009D00E940D0E07FC05D03EF4909581956A
:101BA0009F4F0895709561957F4F08952F923F92B2
:101BB0004F925F926F927F928F929F92AF92BF925D
:101BC000CF92DF92EF92FF920F931F93CF93DF9309
:101BD000CDB7DEB7CA1BDB0B0FB6F894DEBF0FBE66
:101BE000CDBF09942A88398848885F846E847D84B3
:101BF0008C849B84AA84B984C884DF80EE80FD80B5
:101C00000C811B81AA81B981CE0FD11D0FB6F8942A
:101C1000DEBF0FBECDBFED010895AA1BBB1B51E176
:101C200007C0AA1FBB1FA617B70710F0A61BB70B4C
:101C3000881F991F5A95A9F780959095BC01CD01F1
:101C400008950F931F93CF93DF93869F8001879F03
:101C5000100D969F100D1124C8010E943D0EEC013D
:101C6000009729F0A80160E070E00E94A910CE0161
:101C7000DF91CF911F910F910895CF93DF93823021
:101C8000910510F482E090E0E0910E03F0910F03D3
:101C900020E030E0C0E0D0E0309711F14081518188
:101CA00048175907C0F04817590761F4828193819A
:101CB000209719F09B838A832BC090930F03809306
:101CC0000E0326C02115310519F04217530718F4E9
:101CD0009A01BE01DF01EF010280F381E02DDCCF2C
:101CE0002115310509F1281B390B2430310590F4F9
:101CF00012968D919C9113976115710521F0FB014E
:101D00009383828304C090930F0380930E03FD019D
:101D1000329644C0FD01E20FF31F8193919322504C
:101D200031092D933C933AC020910C0330910D035F
:101D3000232B41F4209102013091030130930D03D4
:101D400020930C03209100013091010121153105F0
:101D500041F42DB73EB74091040150910501241B79
:101D6000350BE0910C03F0910D03E217F307A0F49B
:101D70002E1B3F0B2817390778F0AC014E5F5F4FE1
:101D80002417350748F04E0F5F1F50930D03409303
:101D90000C038193919302C0E0E0F0E0CF01DF916A
:101DA000CF9108950F931F93CF93DF93009709F47A
:101DB0008CC0FC0132971382128200910E031091A5
:101DC0000F030115110581F420813181820F931FCA
:101DD00020910C0330910D032817390779F5F09302
:101DE0000D03E0930C0371C0D80140E050E0AE1742
:101DF000BF0750F412962D913C911397AD01211518
:101E0000310509F1D901F3CF9D01DA013383228332
:101E100060817181860F971F8217930769F4EC0127
:101E200028813981260F371F2E5F3F4F3183208352
:101E30008A819B8193838283452B29F4F0930F033E
:101E4000E0930E0342C01396FC93EE931297ED01BC
:101E5000499159919E01240F351FE217F30771F440
:101E600080819181840F951F029611969C938E9389
:101E70008281938113969C938E931297E0E0F0E019
:101E8000D80112968D919C911397009719F0F80143
:101E90008C01F6CF8D919C9198012E5F3F4F820F60
:101EA000931F20910C0330910D032817390769F413
:101EB000309729F410920F0310920E0302C0138280
:101EC000128210930D0300930C03DF91CF911F91A9
:101ED0000F9108958F929F92AF92BF92CF92DF920F
:101EE000EF92FF92CF93DF93EC01688179818A8131
:101EF0009B81611571058105910521F464E279EDFD
:101F00008BE597E02DE133EF41E050E00E94641152
:101F100049015A019B01AC01A7EAB1E40E945111A9
:101F20006B017C01ACEEB4EFA50194010E945F113E
:101F3000DC01CB018C0D9D1DAE1DBF1DB7FF03C085
:101F40000197A109B04888839983AA83BB839F77AF
:101F5000DF91CF91FF90EF90DF90CF90BF90AF9047
:101F60009F908F9008950E946A0F089586E091E0F7
:101F70000E946A0F0895A0E0B0E08093060190935C
:101F80000701A0930801B09309010895283008F0D3
:101F900027E03327DA01990F311D87FD9160009604
:101FA0006105710539F432602E5F3D9330E32A9567
:101FB000E1F708959F3F30F080387105610509F021
:101FC0003C5F3C5F3D93913008F08068911DDF934A
:101FD000CF931F930F93FF92EF92192F987F9695AF
:101FE000E92F96959695E90FFF27E253FB4F992726
:101FF0003327EE24FF24A701E701059008940794F6
:1020000028F4360FE71EF81E491F511D660F771F73
:10201000881F991F0694A1F70590079428F4E70EEE
:10202000F81E491F561FC11D770F881F991F661F75
:102030000694A1F70590079428F4F80E491F561F3F
:10204000C71FD11D880F991F661F771F0694A1F720
:102050000590079420F4490F561FC71FD81F990FEA
:10206000661F771F881F0694A9F784911095177033
:1020700041F0D695C79557954795F794E7941A95EB
:10208000C1F7E4E7F4E068941590159135916591F6
:10209000959105907FE27395E118F10A430B560B79
:1020A000C90BD009C0F7E10CF11E431F561FC91F11
:1020B000D01D7EF4703311F48A95E6CFE894015078
:1020C00030F0080F0AF40027021708F4202F239598
:1020D000022F7A3328F079E37D932A95E9F710C02F
:1020E0007D932A9589F60694979567953795179568
:1020F0001794E118F10A430B560BC90BD00998F05D
:1021000023957E9173957A3308F070E37C932013C6
:10211000B8F77E9170617D9330F0839571E37D9384
:1021200070E32A95E1F71124EF90FF900F911F9132
:10213000CF91DF91992787FD90950895FC01059037
:10214000615070400110D8F7809590958E0F9F1FB9
:102150000895DC0101C06D9341505040E0F70895AF
:10216000FC016150704001900110D8F78095909566
:102170008E0F9F1F08950F931F93CF93DF93FB0143
:10218000238121FD03C08FEF9FEF28C022FF16C0DF
:1021900046815781248135814217530744F4A08139
:1021A000B1819D012F5F3F4F318320838C93268126
:1021B00037812F5F3F4F3783268310C0EB01092FF4
:1021C000182F0084F185E02D0995892BE1F68E8189
:1021D0009F8101969F838E83812F902FDF91CF91D6
:1021E0001F910F910895FA01AA27283051F120314B
:1021F00081F1E8946F936E7F6E5F7F4F8F4F9F4F9B
:10220000AF4FB1E03ED0B4E03CD0670F781F891FDC
:102210009A1FA11D680F791F8A1F911DA11D6A0FAA
:10222000711D811D911DA11D20D009F468943F915D
:102230002AE0269F11243019305D3193DEF6CF015C
:102240000895462F4770405D4193B3E00FD0C9F722
:10225000F6CF462F4F70405D4A3318F0495D31FD8F
:102260004052419302D0A9F7EACFB4E0A6959795E2
:10227000879577956795BA95C9F7009761057105B8
:1022800008959B01AC010A2E069457954795379502
:102290002795BA95C9F7620F731F841F951FA01D5C
:1022A00008950E948311A59F900DB49F900DA49F47
:1022B000800D911D11240895B7FF0C9451110E94B7
:1022C0005111821B930B0895052E97FB1EF4009469
:1022D0000E947B1157FD07D00E94921107FC03D08A
:1022E0004EF40C947B1150954095309521953F4FBD
:1022F0004F4F5F4F089590958095709561957F4FF2
:102300008F4F9F4F0895A29FB001B39FC001A39F1D
:10231000700D811D1124911DB29F700D811D11241E
:10232000911D0895A1E21A2EAA1BBB1BFD010DC031
:10233000AA1FBB1FEE1FFF1FA217B307E407F50775
:1023400020F0A21BB30BE40BF50B661F771F881F51
:10235000991F1A9469F760957095809590959B01E7
:0C236000AC01BD01CF010895F894FFCF3F
:10236C000000100320000100000020200043414227
:04237C0032303200C9
:00000001FF
