:100000000C946D020C948A020C948A020C948A025D
:100010000C948A020C948A020C948A020C948A0230
:100020000C948A020C948A020C94BB060C94F5067C
:100030000C948A020C948A020C948A020C948A0210
:100040000C948A020C948A020C948A020C948A0200
:100050000C94FA030C948A020C948A020C94C70341
:100060000C948A020C948A020C948A020C948A02E0
:100070000C948A020C948A020C948A020C948A02D0
:100080000C948A020C948A020C948A020C948A02C0
:100090000C948A020C948A020C948A020C948A02B0
:1000A0000C948A020C948A020C948A025C0658060C
:1000B000540650064C064806440640063C063806E0
:1000C000340630062C062806240620061C061806D0
:1000D000140610060C06080604060006FC05F805C2
:1000E000F405F005EC05E805E405E005DC05D805B8
:1000F000D405D005CC05C805C405C005BC05B805A8
:10010000B405B005AC05A805A405A0059C05980597
:10011000940590058C058805840580057C05780587
:10012000740570056C056805640560055C050001D3
:100130000000DB01120002000098014300030000F0
:10014000940104010309047E0114020309046601F9
:10015000160303090458010C0C033100320033006C
:100160003400350000001603550053004200200003
:10017000530065007200690061006C000000140308
:1001800059006F007500720020004E0061006D0084
:10019000650000000403090409024300020100C0D5
:1001A00032090400000102020100052400100105CB
:1001B000240101010424020605240600010705822A
:1001C0000310004009040100020A000000070503B3
:1001D00002400000070584024000001201000202F4
:1001E000000010C0167A040001010203010001C1E1
:1001F000120180360181366E616E00696E66000004
:100200000000000000005F00000007000700147FEE
:10021000147F14242A7F2A12231308646236495556
:1002200022500005030000001C2241000041221C56
:100230000014083E081408083E080800503000006A
:100240000808080808006060000020100804023E4A
:100250005149453E00427F4000426151494621419B
:10026000454B311814127F1027454545393C4A4902
:10027000493001710905033649494936064949297A
:100280001E003636000000563600000814224100D9
:1002900014141414140041221408020151090632E6
:1002A0004979413E7E1111117E7F494949363E41CF
:1002B0004141227F4141221C7F494949417F09092F
:1002C00009013E4149497A7F0808087F00417F4182
:1002D000002040413F017F081422417F40404040C0
:1002E0007F020C027F7F0408107F3E4141413E7F28
:1002F000090909063E4151215E7F091929464649EF
:1003000049493101017F01013F4040403F1F2040EA
:10031000201F3F4038403F631408146307087008EB
:10032000076151494543007F414100020408102004
:100330000041417F0004020102044040404040006F
:100340000102040020545454787F4844443838440F
:10035000444420384444487F3854545418087E0993
:1003600001020C5252523E7F0804047800447D4042
:10037000002040443D007F1028440000417F4000A1
:100380007C041804787C0804047838444444387C9D
:1003900014141408081414187C7C08040408485425
:1003A000545420043F4440203C4040207C1C2040CA
:1003B000201C3C4030403C44281028440C505050F5
:1003C0003C4464544C44000836410000007F000067
:1003D00000413608001008081008784641467800A9
:1003E000407A10F35A00A0724E18090010A5D4E804
:1003F0000000E87648170000E40B54020000CA9A97
:100400003B000000E1F505000080969800000040E8
:10041000420F000000A0860100000010270000002D
:1004200000E803000000006400000000000A000073
:100430000000000100000000002C76D888DC674F27
:100440000823DFC1DFAE59E1B1B796E5E3E453C657
:100450003AE651997696E8E6C28426EB898C9B624F
:10046000ED407C6FFCEFBC9C9F40F2BAA56FA5F4F9
:1004700090055A2AF75C936B6CF9676DC11BFCE021
:10048000E40D47FEF520E6B500D0ED902E03009474
:100490003577050080841E080000204E0A00000009
:1004A000C80C333333330F986E12831141EF8D2113
:1004B00014893BE65516CFFEE6DB18D1844B381B7A
:1004C000F77C1D901DA4BBE424203284725E22813F
:1004D00000C9F124ECA1E53D270011241FBECFEF98
:1004E000DAE0DEBFCDBF12E0A0E0B1E0E6E1F6E287
:1004F00002C005900D92A433B107D9F714E0A4E32C
:10050000B2E001C01D92A633B107E1F70E94440892
:100510000C9409130C9400008091360290913702DC
:10052000A0913802B0913902209184003091850069
:10053000DC0199278827BC01CD01620F731F811D43
:10054000911D0E94920F20E030E040E854E40E94A8
:10055000491020E034E244EF5AE40E94200F08954D
:10056000EF92FF920F931F93CF93DF93CDB7DEB738
:1005700064970FB6F894DEBF0FBECDBF7C010E941A
:100580008C0220E030E048EC52E40E9449100E94C6
:10059000B61020E030E048EC52E40E94200F9F9318
:1005A0008F937F936F9327E031E03F932F938E01DA
:1005B0000F5F1F4F1F930F930E9488121C8A0FB664
:1005C000F894DEBF0FBECDBFF80181918F01882363
:1005D00019F00E94AA04F8CF8701F80181918F01D8
:1005E000882319F00E94AA04F8CF8DE00E94AA0483
:1005F0008AE00E94AA0464960FB6F894DEBF0FBE8C
:10060000CDBFDF91CF911F910F91FF90EF90089593
:100610000F931F93CF93DF93CDB7DEB7C555D109A5
:100620000FB6F894DEBF0FBECDBF21E030E03093AF
:100630003502209334029F938F937F936F9386E1CB
:1006400091E09F938F938E010F5F1F4F1F930F9326
:100650000E948812C8010E94B0022FEF84E39CE040
:10066000215080409040E1F700C00000F8940FB6A0
:10067000F894DEBF0FBECDBF0E945A0482369105AA
:10068000D9F710923502109234027894CB5ADF4F8A
:100690000FB6F894DEBF0FBECDBFDF91CF911F9193
:1006A0000F9108958FE30E94650E80B38F7980BB10
:1006B00084B18C6084B90E943E0485B5856085BD97
:1006C000E1E8F0E0808185608083EEE6F0E0808103
:1006D00081608083EFE6F0E08081816080837894A0
:1006E0000895AB0120E0FA01E20FF11D90819923FA
:1006F00011F02F5FF8CF95E0299F900111243595D7
:100700002795319521953109265D27FD20E0682F39
:10071000822F0C94300ECF93DF93EC0189918823C4
:1007200019F00E94AA04FACF8DE00E94AA048AE080
:10073000DF91CF910C94AA04EF92FF920F931F9335
:10074000CF937C01C0E0062F10E0015011090E94F8
:100750005A048F3F2FEF9207D1F38A30910569F049
:100760008D30910551F0F701EC0FF11D8083CF5FC3
:100770008C2F90E08017910754F3F701EC0FF11DD7
:100780001082CF911F910F91FF90EF9008951F92CB
:100790000F920FB60F9211242F933F934F935F93B5
:1007A0006F937F938F939F93AF93BF93EF93FF9339
:1007B0007D9B0FC02FEB84ED91E021508040904055
:1007C000E1F700C0000089E092E00E94B0027D994C
:1007D000FECFFF91EF91BF91AF919F918F917F914C
:1007E0006F915F914F913F912F910F900FBE0F909E
:1007F0001F9018951F920F920FB60F9211242F93EE
:100800003F934F935F936F937F938F939F93AF9398
:10081000BF93EF93FF938091360290913702A0919E
:100820003802B09139020196A11DB11D80933602A4
:1008300090933702A0933802B0933902809134022A
:1008400090913502892B21F480E292E00E94B0025F
:10085000FF91EF91BF91AF919F918F917F916F9198
:100860005F914F913F912F910F900FBE0F901F906E
:1008700018958091E80080FFFCCF089581E0809377
:10088000D70080EA8093D80082E189BD09B400FED8
:10089000FDCF80E98093D8001092E00010923D02D5
:1008A00010923A028CE08093E2007894089580914F
:1008B0003D0208959FB7F89480913D02882369F026
:1008C00083E08093E9002BE68091E80085FD09C074
:1008D00082FF03C02093E800F7CF9FBF8FEF9FEF09
:1008E00008958091F1002091E80025FD03C02BE6DA
:1008F0002093E8009FBF90E008952FB7F89480916F
:100900003D02811102C080E010C083E08093E900C5
:100910008091F200811109C09091E80092FFF3CF1D
:1009200095FDF1CF9BE69093E8002FBF089580914D
:100930003D02882371F08FB7F89493E09093E9001B
:100940002BE69091E80095FF03C02093E800F9CFD3
:100950008FBF089590913D02992371F09FB7F8944D
:1009600024E02093E90020913B02222349F02091CA
:10097000E80025FD03C09FBF8FEF089510923B0252
:100980002091E400275E34E04091E80045FD12C06C
:100990009FBF9091E400921304C081E080933B02DA
:1009A000EBCF90913D02992339F39FB7F8943093A0
:1009B000E900EACF8093F1008091E80085FD03C053
:1009C0008AE38093E80085E080933C029FBF80E04B
:1009D000089590913D029923D1F09FB7F89424E0B7
:1009E0002093E9002091E80025FD02C09FBF0FC0C1
:1009F0008093F1008091E80085FD03C08AE3809335
:100A0000E80085E080933C029FBF80E008958FEF6F
:100A100008950F931F93CF93DF93DC01CB012091B7
:100A20003D02222371F02FB7F89434E03093E900AF
:100A300030913B02332349F03091E80035FD03C08B
:100A40002FBF8FEF43C110923B02C4E0D0E41AE302
:100A500005E0009709F439C13091E400375E409118
:100A6000E80045FD12C02FBF2091E400231304C00D
:100A700081E080933B02E5CF20913D02222309F3E0
:100A80002FB7F894C093E900EACF3091F200ED2F30
:100A9000E31B4E2F50E08417950708F4E82F8E1BB8
:100AA00091094E2F50E04134510508F001C1FA017F
:100AB000EA5AFF4F0C945C113C913093F10011966F
:100AC0003C913093F10011963C913093F1001196D6
:100AD0003C913093F10011963C913093F1001196C6
:100AE0003C913093F10011963C913093F1001196B6
:100AF0003C913093F10011963C913093F1001196A6
:100B00003C913093F10011963C913093F100119695
:100B10003C913093F10011963C913093F100119685
:100B20003C913093F10011963C913093F100119675
:100B30003C913093F10011963C913093F100119665
:100B40003C913093F10011963C913093F100119655
:100B50003C913093F10011963C913093F100119645
:100B60003C913093F10011963C913093F100119635
:100B70003C913093F10011963C913093F100119625
:100B80003C913093F10011963C913093F100119615
:100B90003C913093F10011963C913093F100119605
:100BA0003C913093F10011963C913093F1001196F5
:100BB0003C913093F10011963C913093F1001196E5
:100BC0003C913093F10011963C913093F1001196D5
:100BD0003C913093F10011963C913093F1001196C5
:100BE0003C913093F10011963C913093F1001196B5
:100BF0003C913093F10011963C913093F1001196A5
:100C00003C913093F10011963C913093F100119694
:100C10003C913093F10011963C913093F100119684
:100C20003C913093F10011963C913093F100119674
:100C30003C913093F10011963C913093F100119664
:100C40003C913093F10011963C913093F100119654
:100C50003C913093F10011963C913093F100119644
:100C60003C913093F10011963C913093F100119634
:100C70003C913093F10011963C913093F100119624
:100C80003C913093F10011963C913093F100119614
:100C90003C913093F10011963C913093F100119604
:100CA0003C913093F10011963C913093F1001196F4
:100CB0003C913093F10011963091E80035FF10938C
:100CC000E80000933C022FBFC4CE80E0DF91CF91BB
:100CD0001F910F9108958FB7F89490913C0299233A
:100CE00041F094E09093E9009AE39093E800109229
:100CF0003C028FBF089560910001709101018091C5
:100D0000020190910301089580910401089580915A
:100D10000501089580910601089580913A02089591
:100D20009FB7F89420913D02222339F022E02093CE
:100D3000E9002091E80025FD03C09FBF8FEF0895D3
:100D400021EA2093F10020E22093F1001092F100BB
:100D50001092F1001092F1001092F10021E0209326
:100D6000F1001092F1008093F1008AE38093E80093
:100D70009FBF80E008951F920F920FB60F9211242B
:100D80008F939F938091E1001092E10083FF11C047
:100D90001092E90091E09093EB001092EC0092E148
:100DA0009093ED0098E09093F00010923D02109225
:100DB0003A0282FF13C080913D02882379F080912E
:100DC0003C02882359F0815080933C02811106C077
:100DD00084E08093E9008AE38093E8009F918F91FB
:100DE0000F900FBE0F901F9018951F920F920FB685
:100DF0000F921124EF92FF920F931F932F933F9323
:100E00004F935F936F937F938F939F93AF93BF9312
:100E1000EF93FF93CF93DF931F92CDB7DEB710927E
:100E2000E9008091E80083FF14C19091F100809166
:100E3000F1000091F1002091F10010E0122B3091AF
:100E4000F1002091F100E32EF12CF22A2091F10023
:100E50006091F10032EF3093E800863009F046C02F
:100E600036E08EE291E0FC01459154914017510724
:100E700039F4FC013296459154914E155F0521F0ED
:100E80000796315081F7E5C0FC01349645915491A5
:100E9000FC013696849130E0362B2F3F310519F056
:100EA00010F02FEF30E0281708F4822F3EEF9091DA
:100EB000E800292F2570D9F392FDCEC0982F8131FB
:100EC00008F090E1FA01292F222331F06491609318
:100ED000F10021503196F8CF490F511D891B3093F5
:100EE000E8008111E4CF903111F3B6C0853049F4A8
:100EF0008EEF8093E8000E94390400680093E300BD
:100F0000ABC0893059F59111A4C000933D021092F5
:100F10003A0210923C028EEF8093E80041E08DEEA1
:100F200091E04093E9009C012F5F3F4FFC015491F9
:100F30005093EB00552359F0F90124912093EC00D4
:100F40009C012D5F3F4F319684918093ED004F5F60
:100F5000453011F0C901E5CF8EE176C0883051F4FB
:100F6000903809F076C00E94390480913D02809348
:100F7000F10048C0813279F4913A09F06AC00E94C8
:100F80003904E0E0F1E087E08E0F91919093F10059
:100F90008E13FBCF37C08032A1F4913209F059C0D3
:100FA0008091E80082FFFCCFE0E0F1E087E08E0F67
:100FB0009091F10091938E13FBCF8BEF8093E8001B
:100FC00021C0823241F4913209F043C000933A02C9
:100FD0000E94390417C0811119C099830E943904F5
:100FE0009981923851F4E092E9008091EB0085FB01
:100FF000882780F91092E90001C080E08093F10019
:101000001092F1008EEF8093E80026C0282F2D7FEC
:101010002130F9F49230E9F4012BD9F42E2D2F77F9
:101020009FEF920F9430A8F49EEF9093E8002093E6
:10103000E900833071F089E18093EB0081E090E07A
:1010400001C0880F2A95EAF78093EA001092EA001F
:1010500003C081E28093EB000F90DF91CF91FF916D
:10106000EF91BF91AF919F918F917F916F915F9120
:101070004F913F912F911F910F91FF90EF900F9003
:101080000FBE0F901F901895CF93DF93CDB7DEB7AB
:1010900064970FB6F894DEBF0FBECDBF80E8809393
:1010A000610081E0809361000E9452036CE471E072
:1010B00081E10E94710368E571E088E10E9471039B
:1010C0000E945D0C0E9457048823E1F30E948D0664
:1010D0008823C1F384E691E00E948B038FE991E0BD
:1010E0000E94B002C12CD12C760184EB282E81E025
:1010F000382E8E010F5F1F4F99E1892E912CA12C64
:10110000B12C22E3422E512C612C712C0E94700CC8
:101110000E948C029F938F937F936F933F922F92A5
:101120001F930F930E948812B80185E10E947103FA
:101130008AEB91E00E94B0020E945D0C80ED91E08C
:101140000E94B0022FEF30E782E021503040804013
:10115000E1F700C00000C701B601A50194010E949B
:1011600003110FB6F894DEBF0FBECDBF672B682BFF
:10117000692B71F485B134E0832785B987EE91E05E
:101180000E94B00263E570E080E090E00E940803F6
:10119000C701B601A30192010E9403116A307105D3
:1011A0008105910541F485B198E0892785B988EFDB
:1011B00091E00E94B0022FEFC21AD20AE20AF20AAC
:1011C000A5CFA3E1B0E0E7EEF8E00C9425116C01A7
:1011D0004B012A01FC0117821682838181FF43C3E0
:1011E000AE014F5F5F4F3A01F6019381F40193FD29
:1011F000859193FF81914F01882309F430C3853293
:1012000039F493FD859193FF81914F01853239F433
:10121000B60190E00E94501252012501E5CF10E086
:10122000F12C20E02032A0F48B3269F030F48032CF
:1012300059F0833269F420612CC08D3239F080334B
:1012400039F4216026C02260246023C0286021C0B8
:1012500027FD27C030ED380F3A3078F426FF06C05E
:10126000FAE01F9F300D1124132F13C04AE0F49EA3
:10127000300D1124F32E20620CC08E3221F426FD95
:10128000EEC2206406C08C3611F4206802C0883695
:1012900041F4F40193FD859193FF81914F018111F8
:1012A000C1CF9BEB980F933018F42061805E06C08D
:1012B0009BE9980F933008F071C12F7E26FF16E04E
:1012C0002F73322E853619F42064322E08C08636EC
:1012D00021F4F22FF0683F2E02C01111115037FE99
:1012E00007C01C3350F4EE24E394E10E27E00BC05A
:1012F000183038F027E017E005C027E04CE3E42E73
:1013000002C0212FE12C520144E0A40EB11CF201D5
:1013100060817181828193810E2DA3010E946211EF
:101320002C01098100FF02C003FF07C031FC08C087
:1013300032FE09C030E2232E07C02DE2222E04C067
:101340009BE2292E01C0212C802F8C7019F02110D6
:1013500068C2A8C237FE0FC0E40C04FF04C08A8133
:10136000813309F4EA941E1474F5F8E0FE1578F55B
:1013700088E0E82E2CC036FC2AC0812F90E084152E
:1013800095059CF02CEF42162FEF520674F0432D7A
:101390004068342E0AC0E2E0F0E0EC0FFD1FE10FE0
:1013A000F11D8081803319F411501111F4CF37FEF3
:1013B0000EC0EE24E394E10E812F90E0481659060A
:1013C0002CF4141904C0EE24E39401C010E037FE9D
:1013D00006C01414150434F4C201019605C085E05A
:1013E00090E002C081E090E021100196112331F0DD
:1013F000212F30E02F5F3F4F820F931F2F2D30E0C2
:101400008217930714F4F81A01C0F12C832D897008
:1014100049F4FF2039F0B60180E290E00E945012BA
:10142000FA94F7CF222029F0B601822D90E00E9495
:10143000501233FC09C0FF2039F0B60180E390E080
:101440000E945012FA94F7CF37FE5AC0942D852D82
:1014500057FE02C090E080E0292E382E20E030E0D8
:10146000A2014E1951095D874C87A2014219530907
:101470005F874E87612F70E044275527461B570B27
:10148000598B488B5FEF2516350649F4B6018EE27D
:1014900090E02A8B3B8B0E9450123B892A89421490
:1014A00053046CF04C855D854215530544F4EE857C
:1014B000FF85E20FF31FE60DF71D818101C080E378
:1014C00051E0251A31082F5F3F4F4889598924166A
:1014D00035064CF0B60190E02A8B3B8B0E945012EF
:1014E0002A893B89CFCF2414350439F49A81963365
:1014F00018F4953311F404FF81E3B60190E04BC07A
:101500008A81813309F00F7EB60190E00E9450126B
:10151000111105C034FC18C085E690E017C0B60173
:101520008EE290E00E94501282E0EE24E394E80EF6
:10153000F301E80FF11D8081B60190E00E94501286
:1015400011508E2D91F7E6CF85E490E0B6010E9410
:10155000501257FC05C04114510439F404FF05C072
:101560005194419451088DE201C08BE2B60190E0A4
:101570000E94501280E39AE0491651042CF08F5FCC
:101580005AE0451A5108F7CFB60190E00E94501278
:10159000B601C201C0960E94501257C1833631F085
:1015A000833779F0833509F058C021C05201E2E059
:1015B000AE0EB11CF2018081898301E010E02301AD
:1015C00014C05201F2E0AF0EB11CF2014080518014
:1015D00026FF03C0612F70E002C06FEF7FEFC201F2
:1015E0002A8B0E9445128C012A892F7715C052013F
:1015F000F2E0AF0EB11CF2014080518026FF03C023
:10160000612F70E002C06FEF7FEFC2012A8B0E9452
:101610003A128C012A892068322E23FD1AC08F2DA0
:1016200090E008171907A8F4B60180E290E00E9444
:101630005012FA94F4CFF20137FC859137FE819174
:101640002F01B60190E00E945012F110FA9401505F
:1016500011090115110579F7F8C0843611F08936A2
:1016600059F5520127FF09C0F4E0AF0EB11CF20199
:1016700060817181828193810AC0F2E0AF0EB11C5A
:10168000F20160817181882777FD8095982F2F76F0
:10169000322E97FF09C090958095709561957F4F88
:1016A0008F4F9F4F2068322E2AE030E0A3010E9426
:1016B000AB12E82EE6183FC0022F853721F40F7ECB
:1016C0002AE030E01DC0097F8F3691F018F488358C
:1016D00059F0C5C0803719F0883711F0C0C00061DB
:1016E00004FF09C0046007C024FF08C0066006C0EC
:1016F00028E030E005C020E130E002C020E132E027
:10170000520107FF09C0F4E0AF0EB11CF201608185
:1017100071818281938108C0F2E0AF0EB11CF201A9
:101720006081718180E090E0A3010E94AB12E82EFD
:10173000E6180F77302E36FE0BC0332D3E7FE116B4
:1017400050F434FE0AC032FC08C0332D3E7E05C082
:101750000E2D332D03C00E2D01C0012F34FF0CC000
:10176000FE01EE0DF11D8081803311F4397E08C039
:1017700032FF05C00E5F04C0832F867809F00F5F2B
:1017800033FD13C030FF06C01E2D0F1518F41F0DBA
:10179000101B0F2D0F1568F4B60180E290E03B8B13
:1017A0000E9450120F5F3B89F5CF0F1510F4F01A0D
:1017B00001C0F12C34FF12C0B60180E390E03B8BF6
:1017C0000E9450123B8932FF17C031FD03C088E7E9
:1017D00090E002C088E590E0B6010CC0832F8678C7
:1017E00059F031FF02C08BE201C080E237FD8DE28B
:1017F000B60190E00E945012E11638F4B60180E381
:1018000090E00E9450121150F7CFEA94F301EE0DD0
:10181000F11D8081B60190E00E945012E110F5CFD9
:1018200014C0F4E0FF1558F584E0F81A33FE1EC02A
:10183000211026C003FF2AC007EF11E0F32DF0713D
:101840003F2EF8018491811124C0FF2009F4E5CCDA
:10185000B60180E290E00E945012FA94F6CFF601B1
:101860008681978126C08FEF9FEF23C0B60180E26B
:1018700090E00E945012FA94F110F8CFD9CFF12CD9
:10188000B601822D90E00E945012D4CF0BEF11E0F0
:10189000D5CF31108052B60190E00E9450120F5FF8
:1018A0001F4FCFCF23E02F1510F483E0BECFF12CD4
:1018B000C1CF6396E2E10C944111CF93DF9360E0D6
:1018C00080E00E94A20ECEE3D2E0699181E00E9406
:1018D000470E84E0C633D807C1F7DF91CF91089552
:1018E000EEE3F2E0119284E0E633F807D9F70895C9
:1018F000982F843508F56033F8F4862F8695869501
:101900008695677024E5829FF0011124892F90E06D
:101910008E0F9F1FFC01E25CFD4F81E090E001C053
:10192000880F6A95EAF7442319F09081892B03C048
:10193000809590818923808308952F923F924F92C2
:101940005F926F927F928F929F92AF92BF92CF924F
:10195000DF92EF92FF920F931F93CF93DF93CDB758
:10196000DEB72D970FB6F894DEBF0FBECDBFF82EB1
:10197000262ED42EE22E841320C0C62ED12C022F68
:1019800010E02E1468F40C151D050CF4FBC041E0AA
:101990006C2D8F2D0E94780C9FEFC91AD90AF1CFB8
:1019A000C016D1060CF4EEC041E06C2D8F2D0E94C4
:1019B000780CE1E0CE1AD108E4CF082F10E0242FF4
:1019C00030E03D872C876E111EC0FD1470F48C85AD
:1019D0009D85801791070CF4D5C041E0622D802FC2
:1019E0000E94780C0F5F1F4FF0CFEC85FD850E171E
:1019F0001F070CF4C7C041E0622D802F0E94780CB5
:101A000001501109E2CF6C857D85601B710B882721
:101A100077FD8095982F0E94940F2B013C012E2D6D
:101A200030E03E832D83312CB90162197309882778
:101A300077FD8095982F0E94940F4B015C01A301C4
:101A400092010E94200F69837A838B839C8320E01C
:101A500030E0A9010E94441087FF0BC0A30192014E
:101A6000C501B40190580E94200F69837A838B834B
:101A70009C83C12CD12C760120E030E0A901C30168
:101A8000B2010E94441018160CF076C02C853D85DA
:101A9000201731070CF476C00B8741E0622D802FB0
:101AA0000E94780C29813A814B815C81C701B60183
:101AB0000E94AF0E6B017C0120E030E040E05FE36C
:101AC0000E94441087FF0DC020E030E0A901C3014F
:101AD000B2010E94441018160CF04BC00F5F1F4F4C
:101AE000CBCF20E030E0A901C501B4010E94441031
:101AF0001816CCF58D819E81821593052CF341E05B
:101B0000622D8B850E94780C81E090E098878F830E
:101B100020E030E0A901C501B4010E94441018166C
:101B200014F018861F82E1E0F0E0FA87E98720E0F0
:101B300030E0A901C501B4010E941B0F87FD02C05E
:101B40001A8619868F81988529853A85821B930B81
:101B5000280E391E20E030E040E85FE3C701B601FF
:101B60000E94AE0EA7CFED81FE812E163F063CF6F9
:101B7000ABCF0150110980CF8C859D8508171907BF
:101B80000CF08ACF2D960FB6F894DEBF0FBECDBFF6
:101B9000DF91CF911F910F91FF90EF90DF90CF9049
:101BA000BF90AF909F908F907F906F905F904F907D
:101BB0003F902F9008957F928F929F92AF92BF9205
:101BC000CF92DF92EF92FF920F931F93CF93DF9309
:101BD000982E862E25E0429F7001112400E010E02F
:101BE00030EAE31AF108AA24A394B12CC701800FAC
:101BF000911F9C0121503E4F6901C0E0D0E0792C3B
:101C0000700EC830D105C9F0F601449150E095013D
:101C10000C2E02C0220F331F0A94E2F742235323F3
:101C20000C2E02C0559547950A94E2F76C2F680D6B
:101C3000872D0E94780C2196E4CF0F5F1F4F05304F
:101C40001105A1F6DF91CF911F910F91FF90EF90B9
:101C5000DF90CF90BF90AF909F908F907F9008952E
:101C60000F931F93CF93DF93D62F8A01C82FF801CC
:101C700041918F01442331F06D2F8C2F0E94DB0D99
:101C8000CB5FF5CFDF91CF911F910F91089525B1D3
:101C900030E2839FC00111242F7D822B85B95F988C
:101CA00087E090E070E08F989B01082E02C0359588
:101CB00027950A94E2F720FF02C02E9A01C02E98C1
:101CC0008F9A019780F75F9A0895CF93C82F579AFC
:101CD000249A259A269A879A2C985F9A2C9A61E2E0
:101CE00080E00E94470E6C2F606880E00E94470EE3
:101CF00064E080E00E94470E63E180E00E94470EAE
:101D00006CE080E00E94470E60E280E00E94470E97
:101D10006CE080E00E94470E60E480E00E94470E85
:101D200060E880E0CF910C94470ECF93DF93C8EF2B
:101D3000D1E060E081E00E94470E2197D1F7DF916A
:101D4000CF910895CF93C82F606480E00E94470E22
:101D50006C2F606880E0CF910C94470E5058BB27E1
:101D6000AA270E94C60E0C940A100E94FC0F38F09D
:101D70000E94031020F039F49F3F19F426F40C94CC
:101D8000F90F0EF4E095E7FB0C94F30FE92F0E9496
:101D90001B1058F3BA17620773078407950720F0E2
:101DA00079F4A6F50C943D100EF4E0950B2EBA2FA5
:101DB000A02D0B01B90190010C01CA01A001112451
:101DC000FF27591B99F0593F50F4503E68F11A16FD
:101DD000F040A22F232F342F4427585FF3CF46958E
:101DE00037952795A795F0405395C9F77EF41F16B0
:101DF000BA0B620B730B840BBAF09150A1F0FF0F7A
:101E0000BB1F661F771F881FC2F70EC0BA0F621F65
:101E1000731F841F48F4879577956795B795F79555
:101E20009E3F08F0B0CF9395880F08F09927EE0FEA
:101E30009795879508950E94CF0F08F481E0089543
:101E40000E94340F0C940A100E94031058F00E9454
:101E5000FC0F40F029F45F3F29F00C94F30F51116F
:101E60000C943E100C94F90F0E941B1068F39923F8
:101E7000B1F3552391F3951B550BBB27AA27621786
:101E80007307840738F09F5F5F4F220F331F441F93
:101E9000AA1FA9F335D00E2E3AF0E0E832D09150C7
:101EA0005040E695001CCAF72BD0FE2F29D0660FB4
:101EB000771F881FBB1F261737074807AB07B0E8F7
:101EC00009F0BB0B802DBF01FF2793585F4F3AF0FD
:101ED0009E3F510578F00C94F30F0C943E105F3F39
:101EE000E4F3983ED4F3869577956795B795F79583
:101EF0009F5FC9F7880F911D9695879597F908956B
:101F0000E1E0660F771F881FBB1F62177307840706
:101F1000BA0720F0621B730B840BBA0BEE1F88F715
:101F2000E0950895E89409C097FB3EF4909580955C
:101F3000709561957F4F8F4F9F4F9923A9F0F92F8F
:101F400096E9BB279395F695879577956795B7950D
:101F5000F111F8CFFAF4BB0F11F460FF1BC06F5FF3
:101F60007F4F8F4F9F4F16C0882311F096E911C005
:101F7000772321F09EE8872F762F05C0662371F026
:101F800096E8862F70E060E02AF09A95660F771F3A
:101F9000881FDAF7880F9695879597F90895990F16
:101FA0000008550FAA0BE0E8FEEF16161706E80723
:101FB000F907C0F012161306E407F50798F0621B44
:101FC000730B840B950B39F40A2661F0232B242B19
:101FD000252B21F408950A2609F4A140A6958FEF38
:101FE000811D811D089597F99F6780E870E060E08A
:101FF00008959FEF80EC089500240A9416161706A2
:1020000018060906089500240A94121613061406E9
:1020100005060895092E0394000C11F4882352F04C
:10202000BB0F40F4BF2B11F460FF04C06F5F7F4F04
:102030008F4F9F4F089557FD9058440F551F59F0EB
:102040005F3F71F04795880F97FB991F61F09F3FA5
:1020500079F087950895121613061406551FF2CFCE
:102060004695F1DF08C0161617061806991FF1CF1E
:1020700086957105610508940895E894BB27662745
:102080007727CB0197F908950E94CF0F08F48FEFBF
:1020900008950E945C100C940A100E94FC0F38F006
:1020A0000E94031020F0952311F00C94F30F0C9470
:1020B000F90F11240C943E100E941B1070F3959F91
:1020C000C1F3950F50E0551F629FF001729FBB272F
:1020D000F00DB11D639FAA27F00DB11DAA1F649FCB
:1020E0006627B00DA11D661F829F2227B00DA11D7E
:1020F000621F739FB00DA11D621F839FA00D611D04
:10210000221F749F3327A00D611D231F849F600D24
:10211000211D822F762F6A2F11249F5750409AF04D
:10212000F1F088234AF0EE0FFF1FBB1F661F771FD9
:10213000881F91505040A9F79E3F510580F00C94A4
:10214000F30F0C943E105F3FE4F3983ED4F3869572
:1021500077956795B795F795E7959F5FC1F7FE2B44
:10216000880F911D9695879597F908950E942310E1
:10217000E8F09E37E8F09639B8F49E3848F4672FB7
:10218000782F8827985FF9CF8695779567959395EF
:102190009539D0F3B62FB1706B0F711D811D20F4EE
:1021A00087957795679593950C94DA100C94F510B4
:1021B0000C943E10882371F4772321F09850872BDC
:1021C000762F07C0662311F499270DC09051862BF6
:1021D00070E060E02AF09A95660F771F881FDAF7A3
:1021E000880F9695879597F908959F3F31F0915004
:1021F00020F4879577956795B795880F911D9695EB
:10220000879597F90895A1E21A2EAA1BBB1BFD0121
:102210000DC0AA1FBB1FEE1FFF1FA217B307E407C5
:10222000F50720F0A21BB30BE40BF50B661F771F1D
:10223000881F991F1A9469F76095709580959095FD
:102240009B01AC01BD01CF0108952F923F924F92A7
:102250005F926F927F928F929F92AF92BF92CF9236
:10226000DF92EF92FF920F931F93CF93DF93CDB73F
:10227000DEB7CA1BDB0B0FB6F894DEBF0FBECDBFB7
:1022800009942A88398848885F846E847D848C8488
:102290009B84AA84B984C884DF80EE80FD800C8191
:1022A0001B81AA81B981CE0FD11D0FB6F894DEBF74
:1022B0000FBECDBFED010895EE0FFF1F0590F49105
:1022C000E02D0994283008F027E03327DA01990F30
:1022D000311D87FD916000966105710539F432600A
:1022E0002E5F3D9330E32A95E1F708959F3F30F04C
:1022F00080387105610509F03C5F3C5F3D9391308A
:1023000008F08068911DDF93CF931F930F93FF9286
:10231000EF92192F987F9695E92F96959695E90F4C
:10232000FF27E75CFB4F99273327EE24FF24A70103
:10233000E70105900894079428F4360FE71EF81E6D
:10234000491F511D660F771F881F991F0694A1F71B
:102350000590079428F4E70EF81E491F561FC11D6B
:10236000770F881F991F661F0694A1F705900794A1
:1023700028F4F80E491F561FC71FD11D880F991F3B
:10238000661F771F0694A1F70590079420F4490F64
:10239000561FC71FD81F990F661F771F881F0694E7
:1023A000A9F784911095177041F0D695C795579568
:1023B0004795F794E7941A95C1F7EFEDF3E0689429
:1023C0001590159135916591959105907FE27395E2
:1023D000E118F10A430B560BC90BD009C0F7E10C09
:1023E000F11E431F561FC91FD01D7EF4703311F418
:1023F0008A95E6CFE894015030F0080F0AF40027E0
:10240000021708F4202F2395022F7A3328F079E35E
:102410007D932A95E9F710C07D932A9589F6069455
:1024200097956795379517951794E118F10A430B1F
:10243000560BC90BD00998F023957E9173957A338A
:1024400008F070E37C932013B8F77E9170617D9360
:1024500030F0839571E37D9370E32A95E1F71124C1
:10246000EF90FF900F911F91CF91DF91992787FDFA
:1024700090950895FC010590615070400110D8F7C7
:10248000809590958E0F9F1F0895FC0161507040BC
:1024900001900110D8F7809590958E0F9F1F089599
:1024A0000F931F93CF93DF93FB01238121FD03C083
:1024B0008FEF9FEF28C022FF16C0468157812481ED
:1024C00035814217530744F4A081B1819D012F5FEC
:1024D0003F4F318320838C93268137812F5F3F4F7D
:1024E0003783268310C0EB01092F182F0084F18554
:1024F000E02D0995892BE1F68E819F8101969F83BE
:102500008E83812F902FDF91CF911F910F9108958E
:10251000AEE0B0E0EEE8F2E10C9433110D891E89D3
:1025200086E08C831A8309838FEF9FE79E838D83D8
:10253000AE01475E5F4F6F89788DCE0101960E9494
:10254000E1082F813885F801E20FF31F10822E96E3
:10255000E4E00C944F11FA01AA27283051F1203100
:1025600081F1E8946F936E7F6E5F7F4F8F4F9F4F27
:10257000AF4FB1E03ED0B4E03CD0670F781F891F69
:102580009A1FA11D680F791F8A1F911DA11D6A0F37
:10259000711D811D911DA11D20D009F468943F91EA
:1025A0002AE0269F11243019305D3193DEF6CF01E9
:1025B0000895462F4770405D4193B3E00FD0C9F7AF
:1025C000F6CF462F4F70405D4A3318F0495D31FD1C
:1025D0004052419302D0A9F7EACFB4E0A69597956F
:1025E000879577956795BA95C9F700976105710545
:1025F00008959B01AC010A2E06945795479537958F
:102600002795BA95C9F7620F731F841F951FA01DE8
:062610000895F894FFCFCD
:1026160000E100000000085B4442472040202533CB
:102626002E32665D2000456E7465726564206272A6
:1026360065616B706F696E742040206C696E6520F1
:10264600256C752E205072657373206220746F207E
:10265600636F6E74696E75652E2E2E0057616974F0
:10266600696E6720666F720064656275676765727A
:102676002E2E2E00446562756767657220696E6945
:102686007469616C697365642E2044656275676759
:10269600696E6720737472696E67732077696C6CF4
:1026A600206170706561722062656C6F773A0045D3
:1026B6006E746572696E67206D61696E206C6F6FEE
:1026C600702E2E0025372E34660043616C6C696EC1
:1026D600672073686F775F73637265656E2829007C
:1026E60046696E69736865642073686F775F7363A4
:1026F6007265656E2829004C454430207761732049
:10270600746F67676C6564004C454431207761736C
:1027160020746F67676C6564005072657373206F11
:1027260066205357332064657465637465642E00B0
:1027360054494D455231206F766572666C6F7765E8
:04274600642E0000FD
:00000001FF
